{
  "contractName": "Identity",
  "abi": [
    {
      "constant": true,
      "inputs": [],
      "name": "MANAGEMENT_KEY",
      "outputs": [
        {
          "name": "",
          "type": "uint256"
        }
      ],
      "payable": false,
      "stateMutability": "view",
      "type": "function"
    },
    {
      "constant": true,
      "inputs": [],
      "name": "servicesCount",
      "outputs": [
        {
          "name": "",
          "type": "uint256"
        }
      ],
      "payable": false,
      "stateMutability": "view",
      "type": "function"
    },
    {
      "constant": true,
      "inputs": [
        {
          "name": "",
          "type": "bytes32"
        }
      ],
      "name": "servicesByType",
      "outputs": [
        {
          "name": "",
          "type": "string"
        }
      ],
      "payable": false,
      "stateMutability": "view",
      "type": "function"
    },
    {
      "constant": true,
      "inputs": [],
      "name": "ECDSA",
      "outputs": [
        {
          "name": "",
          "type": "uint256"
        }
      ],
      "payable": false,
      "stateMutability": "view",
      "type": "function"
    },
    {
      "constant": true,
      "inputs": [
        {
          "name": "",
          "type": "bytes32"
        }
      ],
      "name": "indexOfServiceType",
      "outputs": [
        {
          "name": "",
          "type": "uint256"
        }
      ],
      "payable": false,
      "stateMutability": "view",
      "type": "function"
    },
    {
      "constant": true,
      "inputs": [
        {
          "name": "",
          "type": "bytes32"
        }
      ],
      "name": "indexOfKeyHash",
      "outputs": [
        {
          "name": "",
          "type": "uint256"
        }
      ],
      "payable": false,
      "stateMutability": "view",
      "type": "function"
    },
    {
      "constant": true,
      "inputs": [],
      "name": "ACTION_KEY",
      "outputs": [
        {
          "name": "",
          "type": "uint256"
        }
      ],
      "payable": false,
      "stateMutability": "view",
      "type": "function"
    },
    {
      "constant": true,
      "inputs": [],
      "name": "ETH_ADDR",
      "outputs": [
        {
          "name": "",
          "type": "uint256"
        }
      ],
      "payable": false,
      "stateMutability": "view",
      "type": "function"
    },
    {
      "constant": false,
      "inputs": [],
      "name": "destroy",
      "outputs": [],
      "payable": false,
      "stateMutability": "nonpayable",
      "type": "function"
    },
    {
      "constant": true,
      "inputs": [
        {
          "name": "",
          "type": "uint256"
        }
      ],
      "name": "keyHashes",
      "outputs": [
        {
          "name": "",
          "type": "bytes32"
        }
      ],
      "payable": false,
      "stateMutability": "view",
      "type": "function"
    },
    {
      "constant": true,
      "inputs": [],
      "name": "owner",
      "outputs": [
        {
          "name": "",
          "type": "address"
        }
      ],
      "payable": false,
      "stateMutability": "view",
      "type": "function"
    },
    {
      "constant": true,
      "inputs": [],
      "name": "ENCRYPTION_KEY",
      "outputs": [
        {
          "name": "",
          "type": "uint256"
        }
      ],
      "payable": false,
      "stateMutability": "view",
      "type": "function"
    },
    {
      "constant": true,
      "inputs": [],
      "name": "RSA",
      "outputs": [
        {
          "name": "",
          "type": "uint256"
        }
      ],
      "payable": false,
      "stateMutability": "view",
      "type": "function"
    },
    {
      "constant": true,
      "inputs": [
        {
          "name": "",
          "type": "uint256"
        }
      ],
      "name": "services",
      "outputs": [
        {
          "name": "",
          "type": "bytes32"
        }
      ],
      "payable": false,
      "stateMutability": "view",
      "type": "function"
    },
    {
      "constant": true,
      "inputs": [],
      "name": "CLAIM_SIGNER_KEY",
      "outputs": [
        {
          "name": "",
          "type": "uint256"
        }
      ],
      "payable": false,
      "stateMutability": "view",
      "type": "function"
    },
    {
      "constant": true,
      "inputs": [
        {
          "name": "",
          "type": "bytes32"
        }
      ],
      "name": "keys",
      "outputs": [
        {
          "name": "key",
          "type": "address"
        },
        {
          "name": "keyType",
          "type": "uint256"
        },
        {
          "name": "scheme",
          "type": "uint256"
        }
      ],
      "payable": false,
      "stateMutability": "view",
      "type": "function"
    },
    {
      "constant": true,
      "inputs": [],
      "name": "keysCount",
      "outputs": [
        {
          "name": "",
          "type": "uint256"
        }
      ],
      "payable": false,
      "stateMutability": "view",
      "type": "function"
    },
    {
      "constant": false,
      "inputs": [
        {
          "name": "newOwner",
          "type": "address"
        }
      ],
      "name": "transferOwnership",
      "outputs": [],
      "payable": false,
      "stateMutability": "nonpayable",
      "type": "function"
    },
    {
      "constant": false,
      "inputs": [
        {
          "name": "_recipient",
          "type": "address"
        }
      ],
      "name": "destroyAndSend",
      "outputs": [],
      "payable": false,
      "stateMutability": "nonpayable",
      "type": "function"
    },
    {
      "inputs": [
        {
          "name": "id_owner",
          "type": "address"
        }
      ],
      "payable": false,
      "stateMutability": "nonpayable",
      "type": "constructor"
    },
    {
      "payable": true,
      "stateMutability": "payable",
      "type": "fallback"
    },
    {
      "anonymous": false,
      "inputs": [
        {
          "indexed": false,
          "name": "amount",
          "type": "uint256"
        },
        {
          "indexed": false,
          "name": "sender",
          "type": "address"
        }
      ],
      "name": "ReceivedETH",
      "type": "event"
    },
    {
      "anonymous": false,
      "inputs": [
        {
          "indexed": false,
          "name": "amount",
          "type": "uint256"
        },
        {
          "indexed": false,
          "name": "sender",
          "type": "address"
        },
        {
          "indexed": false,
          "name": "token",
          "type": "address"
        }
      ],
      "name": "ReceivedERC20",
      "type": "event"
    },
    {
      "anonymous": false,
      "inputs": [
        {
          "indexed": true,
          "name": "previousOwner",
          "type": "address"
        },
        {
          "indexed": true,
          "name": "newOwner",
          "type": "address"
        }
      ],
      "name": "OwnershipTransferred",
      "type": "event"
    },
    {
      "anonymous": false,
      "inputs": [
        {
          "indexed": false,
          "name": "_type",
          "type": "bytes32"
        }
      ],
      "name": "ServiceAdded",
      "type": "event"
    },
    {
      "anonymous": false,
      "inputs": [
        {
          "indexed": false,
          "name": "_type",
          "type": "bytes32"
        }
      ],
      "name": "ServiceRemoved",
      "type": "event"
    },
    {
      "anonymous": false,
      "inputs": [
        {
          "indexed": false,
          "name": "_type",
          "type": "bytes32"
        }
      ],
      "name": "ServiceUpdated",
      "type": "event"
    },
    {
      "anonymous": false,
      "inputs": [
        {
          "indexed": true,
          "name": "key",
          "type": "address"
        },
        {
          "indexed": true,
          "name": "keyType",
          "type": "uint256"
        }
      ],
      "name": "KeyAdded",
      "type": "event"
    },
    {
      "anonymous": false,
      "inputs": [
        {
          "indexed": true,
          "name": "key",
          "type": "address"
        },
        {
          "indexed": true,
          "name": "keyType",
          "type": "uint256"
        }
      ],
      "name": "KeyRemoved",
      "type": "event"
    },
    {
      "constant": false,
      "inputs": [
        {
          "name": "_key",
          "type": "address"
        },
        {
          "name": "_type",
          "type": "uint256"
        },
        {
          "name": "_scheme",
          "type": "uint256"
        }
      ],
      "name": "addKey",
      "outputs": [
        {
          "name": "",
          "type": "bool"
        }
      ],
      "payable": false,
      "stateMutability": "nonpayable",
      "type": "function"
    },
    {
      "constant": true,
      "inputs": [
        {
          "name": "_key",
          "type": "address"
        },
        {
          "name": "_type",
          "type": "uint256"
        }
      ],
      "name": "getKey",
      "outputs": [
        {
          "name": "",
          "type": "address"
        },
        {
          "name": "",
          "type": "uint256"
        },
        {
          "name": "",
          "type": "uint256"
        }
      ],
      "payable": false,
      "stateMutability": "view",
      "type": "function"
    },
    {
      "constant": true,
      "inputs": [
        {
          "name": "_hash",
          "type": "bytes32"
        }
      ],
      "name": "getKeyByHash",
      "outputs": [
        {
          "name": "",
          "type": "address"
        },
        {
          "name": "",
          "type": "uint256"
        },
        {
          "name": "",
          "type": "uint256"
        }
      ],
      "payable": false,
      "stateMutability": "view",
      "type": "function"
    },
    {
      "constant": false,
      "inputs": [
        {
          "name": "_key",
          "type": "address"
        },
        {
          "name": "_type",
          "type": "uint256"
        }
      ],
      "name": "removeKey",
      "outputs": [
        {
          "name": "",
          "type": "bool"
        }
      ],
      "payable": false,
      "stateMutability": "nonpayable",
      "type": "function"
    },
    {
      "constant": true,
      "inputs": [
        {
          "name": "index",
          "type": "uint256"
        }
      ],
      "name": "getAddressByIndex",
      "outputs": [
        {
          "name": "",
          "type": "address"
        }
      ],
      "payable": false,
      "stateMutability": "view",
      "type": "function"
    },
    {
      "constant": true,
      "inputs": [
        {
          "name": "_key",
          "type": "address"
        },
        {
          "name": "_type",
          "type": "uint256"
        }
      ],
      "name": "getKeyIndex",
      "outputs": [
        {
          "name": "",
          "type": "uint256"
        }
      ],
      "payable": false,
      "stateMutability": "view",
      "type": "function"
    },
    {
      "constant": false,
      "inputs": [
        {
          "name": "_type",
          "type": "bytes32"
        },
        {
          "name": "_endpoint",
          "type": "string"
        }
      ],
      "name": "addService",
      "outputs": [
        {
          "name": "",
          "type": "bool"
        }
      ],
      "payable": false,
      "stateMutability": "nonpayable",
      "type": "function"
    },
    {
      "constant": true,
      "inputs": [
        {
          "name": "_type",
          "type": "bytes32"
        }
      ],
      "name": "getServiceByType",
      "outputs": [
        {
          "name": "",
          "type": "string"
        }
      ],
      "payable": false,
      "stateMutability": "view",
      "type": "function"
    },
    {
      "constant": false,
      "inputs": [
        {
          "name": "_type",
          "type": "bytes32"
        }
      ],
      "name": "removeService",
      "outputs": [
        {
          "name": "",
          "type": "bool"
        }
      ],
      "payable": false,
      "stateMutability": "nonpayable",
      "type": "function"
    },
    {
      "constant": false,
      "inputs": [
        {
          "name": "amount",
          "type": "uint256"
        }
      ],
      "name": "withdrawEth",
      "outputs": [],
      "payable": false,
      "stateMutability": "nonpayable",
      "type": "function"
    },
    {
      "constant": false,
      "inputs": [
        {
          "name": "amount",
          "type": "uint256"
        },
        {
          "name": "tokenAddress",
          "type": "address"
        }
      ],
      "name": "withdrawERC20",
      "outputs": [],
      "payable": false,
      "stateMutability": "nonpayable",
      "type": "function"
    }
  ],
  "bytecode": "0x60606040526000600355600980546001608060020a0319166f302e312e31000000000000000000000017905534156200003757600080fd5b6040516020806200162f8339810160405280805160088054600160a060020a038084163391909116600160a060020a03199283161790911617905591506200009390508160016003640100000000620011776200009a82021704565b50620001ea565b60008383604051600160a060020a03929092166c010000000000000000000000000282526014820152603401604051908190039020600081815260208190526040902054909150600160a060020a031615156200013057600180548082016200010483826200019a565b506000918252602080832091909101839055600380548484526002909252604090922081905560010190555b60606040519081016040908152600160a060020a038616825260208083018690528183018590526000848152908190522081518154600160a060020a031916600160a060020a03919091161781556020820151816001015560408201516002909101555050505050565b815481835581811511620001c157600083815260209020620001c1918101908301620001c6565b505050565b620001e791905b80821115620001e35760008155600101620001cd565b5090565b90565b61143580620001fa6000396000f3006060604052600436106101665763ffffffff60e060020a600035041663058b316c81146101ab5780630bf08787146101d057806311c3cec9146101e35780631ecbfcea1461027057806338a062a1146102835780634ede626c14610299578063592bda82146102d25780635e52ba73146102e85780636726dac61461033e57806375e5598c146103545780637753f47b146101ab57806381dd7b8e1461036757806383197ef01461038957806384dedf541461039e5780638da5cb5b146103b45780639e140cc8146103e3578063a24c1bd514610354578063a369f72e146103f6578063ace730601461044e578063c20938e014610464578063c22c4f4314610486578063c311d0491461049c578063c670218714610270578063ce10cf88146104b2578063d3884c3f146104c8578063dde5b7a1146104de578063e244a602146104f4578063e4f627fe14610516578063f2fde38b14610529578063f5074f4114610548575b7f8896b78bee3425f51a871baaeba673d465e036b59282c65dece71c53e9078b623433604051918252600160a060020a031660208201526040908101905180910390a1005b34156101b657600080fd5b6101be610567565b60405190815260200160405180910390f35b34156101db57600080fd5b6101be61056c565b34156101ee57600080fd5b6101f9600435610572565b60405160208082528190810183818151815260200191508051906020019080838360005b8381101561023557808201518382015260200161021d565b50505050905090810190601f1680156102625780820380516001836020036101000a031916815260200191505b509250505060405180910390f35b341561027b57600080fd5b6101be610622565b341561028e57600080fd5b6101be600435610627565b34156102a457600080fd5b6102be600160a060020a0360043516602435604435610639565b604051901515815260200160405180910390f35b34156102dd57600080fd5b6101be6004356106da565b34156102f357600080fd5b6102be600480359060446024803590810190830135806020601f820181900481020160405190810160405281815292919060208401838380828437509496506106ec95505050505050565b341561034957600080fd5b6101f96004356108a2565b341561035f57600080fd5b6101be610a32565b341561037257600080fd5b6102be600160a060020a0360043516602435610a37565b341561039457600080fd5b61039c610b94565b005b34156103a957600080fd5b6101be600435610bbd565b34156103bf57600080fd5b6103c7610bdc565b604051600160a060020a03909116815260200160405180910390f35b34156103ee57600080fd5b6101be610beb565b341561040157600080fd5b610418600160a060020a0360043516602435610bf0565b6040518084600160a060020a0316600160a060020a03168152602001838152602001828152602001935050505060405180910390f35b341561045957600080fd5b610418600435610c38565b341561046f57600080fd5b61039c600435600160a060020a0360243516610c8b565b341561049157600080fd5b6101be600435610d7f565b34156104a757600080fd5b61039c600435610d8d565b34156104bd57600080fd5b6103c7600435610e2b565b34156104d357600080fd5b6102be600435610e75565b34156104e957600080fd5b610418600435611040565b34156104ff57600080fd5b6101be600160a060020a036004351660243561106b565b341561052157600080fd5b6101be6110af565b341561053457600080fd5b61039c600160a060020a03600435166110b5565b341561055357600080fd5b61039c600160a060020a0360043516611150565b600181565b60075481565b60046020528060005260406000206000915090508054600181600116156101000203166002900480601f01602080910402602001604051908101604052809291908181526020018280546001816001161561010002031660029004801561061a5780601f106105ef5761010080835404028352916020019161061a565b820191906000526020600020905b8154815290600101906020018083116105fd57829003601f168201915b505050505081565b600381565b60056020526000908152604090205481565b6000806000336001604051600160a060020a0392909216606060020a02825260148201526034016040519081900390208152602081019190915260400160002054600160a060020a0316151561068e57600080fd5b610699848484611177565b8284600160a060020a03167f7d958a859734aa5212d2568f8700fe77619bc93d5b08abf1445585bac8bff60660405160405180910390a35060019392505050565b60026020526000908152604090205481565b60006106f66112f8565b600080336001604051600160a060020a0392909216606060020a02825260148201526034016040519081900390208152602081019190915260400160002054600160a060020a0316151561074957600080fd5b6004600085600019166000191681526020019081526020016000208054600181600116156101000203166002900480601f0160208091040260200160405190810160405280929190818152602001828054600181600116156101000203166002900480156107f85780601f106107cd576101008083540402835291602001916107f8565b820191906000526020600020905b8154815290600101906020018083116107db57829003601f168201915b5050505050905080511515610845576006805460018101610819838261130a565b506000918252602080832091909101869055600780548784526005909252604090922081905560010190555b600084815260046020526040902083805161086492916020019061132e565b507f8f531e5ede07d5741fd086bb787ed399a64704eb757b87cc80cf6635b274e5b58460405190815260200160405180910390a15060019392505050565b6108aa6112f8565b6108b26112f8565b6004600084600019166000191681526020019081526020016000208054600181600116156101000203166002900480601f0160208091040260200160405190810160405280929190818152602001828054600181600116156101000203166002900480156109615780601f1061093657610100808354040283529160200191610961565b820191906000526020600020905b81548152906001019060200180831161094457829003601f168201915b50505050509050600081511161097657600080fd5b6004600084600019166000191681526020019081526020016000208054600181600116156101000203166002900480601f016020809104026020016040519081016040528092919081815260200182805460018160011615610100020316600290048015610a255780601f106109fa57610100808354040283529160200191610a25565b820191906000526020600020905b815481529060010190602001808311610a0857829003601f168201915b5050505050915050919050565b600281565b6000806000806000336001604051600160a060020a0392909216606060020a02825260148201526034016040519081900390208152602081019190915260400160002054600160a060020a03161515610a8f57600080fd5b8484604051600160a060020a0392909216606060020a0282526014820152603401604051908190039020600081815260026020526040902054600354600180549395509193509091600019909101908110610ae657fe5b906000526020600020900154600182815481101515610b0157fe5b600091825260208083209091019290925560038054600019019055838152908190526040808220805473ffffffffffffffffffffffffffffffffffffffff1916815560018101839055600201919091558490600160a060020a038716907fe96ba5805e91ce4b5225d90ad1aac15c207472188f51f24025974341360f0f8a905160405180910390a3506001949350505050565b60085433600160a060020a03908116911614610baf57600080fd5b600854600160a060020a0316ff5b6001805482908110610bcb57fe5b600091825260209091200154905081565b600854600160a060020a031681565b600481565b6000806000808585604051600160a060020a0392909216606060020a028252601482015260340160405180910390209050610c2a81610c38565b935093509350509250925092565b60008181526020819052604081205481908190600160a060020a03161515610c5f57600080fd5b505050600090815260208190526040902080546001820154600290920154600160a060020a0390911692565b6000806000336001604051600160a060020a0392909216606060020a02825260148201526034016040519081900390208152602081019190915260400160002054600160a060020a03161515610ce057600080fd5b5080600160a060020a0381166370a082313060006040516020015260405160e060020a63ffffffff8416028152600160a060020a039091166004820152602401602060405180830381600087803b1515610d3957600080fd5b6102c65a03f11515610d4a57600080fd5b50505060405180518411159050610d6057600080fd5b610d7a600160a060020a038216338563ffffffff61127816565b505050565b6006805482908110610bcb57fe5b600080336001604051600160a060020a0392909216606060020a02825260148201526034016040519081900390208152602081019190915260400160002054600160a060020a03161515610de057600080fd5b600160a060020a03301631811115610df757600080fd5b600160a060020a03331681156108fc0282604051600060405180830381858888f193505050501515610e2857600080fd5b50565b60008060035483101515610e3e57600080fd5b6001805484908110610e4c57fe5b60009182526020808320919091015482528190526040902054600160a060020a03169392505050565b6000610e7f6112f8565b6000806000336001604051600160a060020a0392909216606060020a02825260148201526034016040519081900390208152602081019190915260400160002054600160a060020a03161515610ed457600080fd5b6004600085600019166000191681526020019081526020016000208054600181600116156101000203166002900480601f016020809104026020016040519081016040528092919081815260200182805460018160011615610100020316600290048015610f835780601f10610f5857610100808354040283529160200191610f83565b820191906000526020600020905b815481529060010190602001808311610f6657829003601f168201915b505050505091506000825111610f9857600080fd5b50600083815260056020908152604080832054600490925282209091610fbe91906113ac565b6006600160075403815481101515610fd257fe5b906000526020600020900154600682815481101515610fed57fe5b600091825260209091200155600780546000190190557f94da5eeca10d4d6ee8455f99240c10b0c74b0cf5bf754afb81c81e2704b9c4278460405190815260200160405180910390a15060019392505050565b600060208190529081526040902080546001820154600290920154600160a060020a03909116919083565b6000808383604051600160a060020a0392909216606060020a0282526014820152603401604051908190039020600090815260026020526040902054949350505050565b60035481565b60085433600160a060020a039081169116146110d057600080fd5b600160a060020a03811615156110e557600080fd5b600854600160a060020a0380831691167f8be0079c531659141344cd1fd0a4f28419497f9722a3daafe3b4186f6b6457e060405160405180910390a36008805473ffffffffffffffffffffffffffffffffffffffff1916600160a060020a0392909216919091179055565b60085433600160a060020a0390811691161461116b57600080fd5b80600160a060020a0316ff5b60008383604051600160a060020a0392909216606060020a0282526014820152603401604051908190039020600081815260208190526040902054909150600160a060020a0316151561120157600180548082016111d5838261130a565b506000918252602080832091909101839055600380548484526002909252604090922081905560010190555b60606040519081016040908152600160a060020a03861682526020808301869052818301859052600084815290819052208151815473ffffffffffffffffffffffffffffffffffffffff1916600160a060020a03919091161781556020820151816001015560408201516002909101555050505050565b82600160a060020a031663a9059cbb838360006040516020015260405160e060020a63ffffffff8516028152600160a060020a0390921660048301526024820152604401602060405180830381600087803b15156112d557600080fd5b6102c65a03f115156112e657600080fd5b505050604051805190501515610d7a57fe5b60206040519081016040526000815290565b815481835581811511610d7a57600083815260209020610d7a9181019083016113ec565b828054600181600116156101000203166002900490600052602060002090601f016020900481019282601f1061136f57805160ff191683800117855561139c565b8280016001018555821561139c579182015b8281111561139c578251825591602001919060010190611381565b506113a89291506113ec565b5090565b50805460018160011615610100020316600290046000825580601f106113d25750610e28565b601f016020900490600052602060002090810190610e2891905b61140691905b808211156113a857600081556001016113f2565b905600a165627a7a723058208144d2f7a83f76272d262f56b660831db283ea086c5ac646344b31076f8342df0029",
  "source": "pragma solidity ^0.4.19;\n\nimport './interfaces/ERC725b.sol';\nimport './interfaces/ServiceCollection.sol';\n\n\nimport 'zeppelin-solidity/contracts/token/ERC20/ERC20.sol';\nimport 'zeppelin-solidity/contracts/ownership/Ownable.sol';\nimport 'zeppelin-solidity/contracts/token/ERC20/SafeERC20.sol';\nimport 'zeppelin-solidity/contracts/lifecycle/Destructible.sol';\n\n/**\n * @title Identity\n * @dev Contract that represents an identity\n */\ncontract Identity is ERC725b, ServiceCollection, Ownable, Destructible {\n    using SafeERC20 for ERC20;\n\n    bytes16 version = \"0.1.1\";\n\n    event ReceivedETH(uint256 amount, address sender);\n    event ReceivedERC20(uint256 amount, address sender, address token);\n\n    modifier onlyManager () {\n        require(keys[keccak256(msg.sender, MANAGEMENT_KEY)].key != 0);\n        _;\n    }\n\n    modifier onlyManagerOrSelf () {\n        require(msg.sender == address(this) || keys[keccak256(msg.sender, MANAGEMENT_KEY)].key != 0);\n        _;\n    }\n\n    /**\n     * @dev Identity Constructor. Assigns a Management key to the creator.\n     * @param id_owner — The creator of this identity.\n     */\n    function Identity(address id_owner) public {\n        owner = id_owner;\n        // Adds sender as a management key\n        //keys[keccak256(id_owner, MANAGEMENT_KEY)] = Key(id_owner, MANAGEMENT_KEY, ECDSA);\n        _addKey(id_owner, MANAGEMENT_KEY, ECDSA);\n    }\n\n    /**\n     * @dev Fallback function. Allows the contract to receive ETH payments\n     */\n    function()\n        public\n        payable\n    {\n        ReceivedETH(msg.value, msg.sender);\n    }\n\n    /**\n     * @dev Adds a new key (address) to the identity\n     * @param _key — The key (address) to be added\n     * @param _type — The key type (Management, Action, etc)\n     * @param _scheme — The scheme to be used for verifying this key (ECDSA, RSA, etc)\n     */\n    function addKey(address _key, uint256 _type, uint256 _scheme)\n        onlyManager\n        public\n        returns (bool)\n    {\n        _addKey(_key, _type, _scheme);\n        KeyAdded(_key, _type);\n\n        return true;\n    }\n\n    /**\n     * @dev Internal function where key addition logic is implemented\n     */\n    function _addKey(address _key, uint256 _type, uint256 _scheme)\n        internal\n    {\n        bytes32 kec = keccak256(_key, _type);\n\n\n        // if key/type doesn't exists\n        if (keys[kec].key == address(0)) {\n            keyHashes.push(kec);\n            indexOfKeyHash[kec] = keysCount;\n            keysCount = keysCount + 1;\n        }\n\n        keys[kec] = Key(_key, _type, _scheme);\n    }\n\n    /**\n     * @dev Retrieves a key by its address and type\n     * @param _key — The key (address) to be retrieved\n     * @param _type — The key type (Management, Action, etc)\n     */\n    function getKey(address _key, uint256 _type)\n        public\n        view\n        returns (address, uint256, uint256)\n    {\n        bytes32 _hash = keccak256(_key, _type);\n        return getKeyByHash(_hash);\n    }\n\n    function getKeyByHash(bytes32 _hash)\n        public\n        view\n        returns (address, uint256, uint256)\n    {\n        require(keys[_hash].key != 0);\n        return (keys[_hash].key, keys[_hash].keyType, keys[_hash].scheme);\n    }\n\n    /**\n     * @dev Removes a key (doable only by addresses added of the MANAGEMENT type)\n     * @param _key — The key (address) to be removed\n     * @param _type — The key type (Management, Action, etc)\n     */\n    function removeKey(address _key, uint256 _type)\n        onlyManager\n        public\n        returns (bool)\n    {\n        bytes32 _hash = keccak256(_key, _type);\n        uint256 index = indexOfKeyHash[_hash];\n        keyHashes[index] = keyHashes[keysCount - 1];    // moves last element to deleted slot\n        keysCount = keysCount - 1;\n        delete keys[_hash];\n        KeyRemoved(_key, _type);\n\n        return true;\n    }\n\n    /**\n     * @dev Retrieves a key (only the address-type field) given the numeric index\n     */\n    function getAddressByIndex(uint256 index) public view returns (address){\n        require(index < keysCount);\n        bytes32 _hash = keyHashes[index];\n        return keys[_hash].key;\n    }\n\n    /**\n     * @dev Retrieves the index of a combination of key and type.\n     * NOTE: this will return 0 as an index even if the key does not exist.\n     * This method is for debugging purposes.\n     */\n    function getKeyIndex(address _key, uint256 _type)\n        public\n        view\n        returns (uint256)\n    {\n        bytes32 _hash = keccak256(_key, _type);\n        return indexOfKeyHash[_hash];\n    }\n\n    /**\n     * @dev Adds a service endpoint to the identity\n     * @param _type — The service type (short string)\n     * @param _endpoint — The service endpoint URI\n     */\n    function addService(bytes32 _type, string _endpoint)\n        public\n        onlyManager\n        returns (bool)\n    {\n        bytes memory serviceBytes = bytes(servicesByType[_type]);\n        if (serviceBytes.length == 0) {\n            // service of such type doesn't exist yet\n            services.push(_type);\n            indexOfServiceType[_type] = servicesCount;\n            servicesCount = servicesCount + 1;\n        }\n        servicesByType[_type] = _endpoint;\n        ServiceAdded(_type);\n\n        return true;\n    }\n\n    /**\n     * @dev Gets a service endpoint given a type\n     * @param _type — The service type (short string) E.g. \"HubService\"\n     */\n    function getServiceByType(bytes32 _type)\n        public\n        view\n        returns (string)\n    {\n        bytes memory serviceBytes = bytes(servicesByType[_type]);\n        require(serviceBytes.length > 0);\n\n        return servicesByType[_type];\n    }\n\n    /**\n     * @dev Removes a service endpoint of the given type\n     * @param _type — The service type (short string) E.g. \"HubService\"\n     */\n    function removeService(bytes32 _type)\n        public\n        onlyManager\n        returns (bool)\n    {\n        bytes memory serviceBytes = bytes(servicesByType[_type]);\n        require(serviceBytes.length > 0);\n\n\n        uint256 index = indexOfServiceType[_type];\n        delete servicesByType[_type];\n        services[index] = services[servicesCount - 1];    // moves last element to deleted slot\n        servicesCount = servicesCount - 1;\n        ServiceRemoved(_type);\n\n        return true;\n    }\n\n    /**\n     * @dev Withdraws ETH held by the identity contract\n     * @param amount — The amount of ETH to be withdrawn\n     */\n    function withdrawEth(uint256 amount)\n        public\n        onlyManager\n    {\n        require(amount <= this.balance);\n        msg.sender.transfer(amount);\n    }\n\n    /**\n     * @dev Withdraws ERC20 tokens held by the identity contract\n     * @param amount — The amount of tokens to be withdrawn\n     */\n    function withdrawERC20(uint256 amount, address tokenAddress)\n        public\n        onlyManager\n    {\n        ERC20 token = ERC20(tokenAddress);\n        require(amount <= token.balanceOf(this));\n        token.safeTransfer(msg.sender, amount);\n    }\n}\n",
  "sourcePath": "/home/carlos/work/dev/github/cbruguera/identity-contracts/contracts/Identity.sol",
  "compiler": {
    "name": "solc",
    "version": "0.4.19+commit.c4cbbb05.Emscripten.clang"
  },
  "schemaVersion": "2.0.0",
  "updatedAt": "2018-04-18T12:31:07.694Z"
}